{
  "contractName": "TenancyDeposit",
  "abi": [
    {
      "inputs": [],
      "stateMutability": "nonpayable",
      "type": "constructor"
    },
    {
      "anonymous": false,
      "inputs": [
        {
          "indexed": false,
          "internalType": "address",
          "name": "landlord",
          "type": "address"
        },
        {
          "indexed": false,
          "internalType": "uint256",
          "name": "propertyId",
          "type": "uint256"
        },
        {
          "indexed": false,
          "internalType": "uint256",
          "name": "depositAmount",
          "type": "uint256"
        },
        {
          "indexed": false,
          "internalType": "address",
          "name": "tenant",
          "type": "address"
        },
        {
          "indexed": false,
          "internalType": "uint256",
          "name": "agreementState",
          "type": "uint256"
        }
      ],
      "name": "DepositAgreementCreated",
      "type": "event"
    },
    {
      "anonymous": false,
      "inputs": [
        {
          "indexed": false,
          "internalType": "address",
          "name": "tenant",
          "type": "address"
        },
        {
          "indexed": false,
          "internalType": "uint256",
          "name": "propertyId",
          "type": "uint256"
        },
        {
          "indexed": false,
          "internalType": "uint256",
          "name": "depositAmount",
          "type": "uint256"
        },
        {
          "indexed": false,
          "internalType": "uint256",
          "name": "agreementState",
          "type": "uint256"
        }
      ],
      "name": "DepositPaid",
      "type": "event"
    },
    {
      "anonymous": false,
      "inputs": [
        {
          "indexed": false,
          "internalType": "address",
          "name": "landlord",
          "type": "address"
        },
        {
          "indexed": false,
          "internalType": "uint256",
          "name": "propertyId",
          "type": "uint256"
        },
        {
          "indexed": false,
          "internalType": "uint256",
          "name": "returnedAmount",
          "type": "uint256"
        },
        {
          "indexed": false,
          "internalType": "address",
          "name": "tenant",
          "type": "address"
        },
        {
          "indexed": false,
          "internalType": "uint256",
          "name": "agreementState",
          "type": "uint256"
        }
      ],
      "name": "DepositReturned",
      "type": "event"
    },
    {
      "inputs": [],
      "name": "landlord",
      "outputs": [
        {
          "internalType": "address payable",
          "name": "",
          "type": "address"
        }
      ],
      "stateMutability": "view",
      "type": "function",
      "constant": true
    },
    {
      "stateMutability": "payable",
      "type": "receive",
      "payable": true
    },
    {
      "inputs": [
        {
          "internalType": "uint256",
          "name": "_propertyId",
          "type": "uint256"
        },
        {
          "internalType": "uint256",
          "name": "_depositAmount",
          "type": "uint256"
        }
      ],
      "name": "createDepositAgreement",
      "outputs": [],
      "stateMutability": "nonpayable",
      "type": "function"
    },
    {
      "inputs": [
        {
          "internalType": "uint256",
          "name": "_propertyId",
          "type": "uint256"
        }
      ],
      "name": "payDeposit",
      "outputs": [],
      "stateMutability": "payable",
      "type": "function",
      "payable": true
    },
    {
      "inputs": [
        {
          "internalType": "uint256",
          "name": "_propertyId",
          "type": "uint256"
        },
        {
          "internalType": "uint256",
          "name": "_deductions",
          "type": "uint256"
        }
      ],
      "name": "approveDepositReturn",
      "outputs": [
        {
          "internalType": "uint256",
          "name": "",
          "type": "uint256"
        }
      ],
      "stateMutability": "nonpayable",
      "type": "function"
    },
    {
      "inputs": [
        {
          "internalType": "uint256",
          "name": "_propertyId",
          "type": "uint256"
        }
      ],
      "name": "withdrawDeposit",
      "outputs": [],
      "stateMutability": "nonpayable",
      "type": "function"
    },
    {
      "inputs": [
        {
          "internalType": "uint256",
          "name": "_propertyId",
          "type": "uint256"
        }
      ],
      "name": "getDeposit",
      "outputs": [
        {
          "components": [
            {
              "internalType": "uint256",
              "name": "propertyId",
              "type": "uint256"
            },
            {
              "internalType": "address",
              "name": "landlord",
              "type": "address"
            },
            {
              "internalType": "address payable",
              "name": "tenant",
              "type": "address"
            },
            {
              "internalType": "uint256",
              "name": "depositAmount",
              "type": "uint256"
            },
            {
              "internalType": "uint256",
              "name": "deductions",
              "type": "uint256"
            },
            {
              "internalType": "uint256",
              "name": "returnAmount",
              "type": "uint256"
            },
            {
              "internalType": "enum TenancyDeposit.AgreementState",
              "name": "agreementState",
              "type": "uint8"
            }
          ],
          "internalType": "struct TenancyDeposit.Deposit",
          "name": "",
          "type": "tuple"
        }
      ],
      "stateMutability": "view",
      "type": "function",
      "constant": true
    },
    {
      "inputs": [],
      "name": "getPropertyIds",
      "outputs": [
        {
          "internalType": "uint256[]",
          "name": "",
          "type": "uint256[]"
        }
      ],
      "stateMutability": "view",
      "type": "function",
      "constant": true
    },
    {
      "inputs": [],
      "name": "depositBalances",
      "outputs": [
        {
          "internalType": "uint256",
          "name": "",
          "type": "uint256"
        }
      ],
      "stateMutability": "view",
      "type": "function",
      "constant": true
    }
  ],
  "bytecode": "0x608060405234801561001057600080fd5b50600160008190555033600160006101000a81548173ffffffffffffffffffffffffffffffffffffffff021916908373ffffffffffffffffffffffffffffffffffffffff1602179055506123c6806100696000396000f3fe60806040526004361061007f5760003560e01c8063439b72631161004e578063439b7263146101385780639f9fb96814610161578063bb20b8d21461019e578063dc1997ea146101c957610086565b806310b8bab21461008b57806328cd3f18146100c857806333289a46146100e4578063357475891461010d57610086565b3661008657005b600080fd5b34801561009757600080fd5b506100b260048036038101906100ad919061174e565b6101f4565b6040516100bf91906121ba565b60405180910390f35b6100e260048036038101906100dd9190611725565b610523565b005b3480156100f057600080fd5b5061010b60048036038101906101069190611725565b6109d8565b005b34801561011957600080fd5b50610122610ea4565b60405161012f91906121ba565b60405180910390f35b34801561014457600080fd5b5061015f600480360381019061015a919061174e565b610f3c565b005b34801561016d57600080fd5b5061018860048036038101906101839190611725565b61134a565b604051610195919061219f565b60405180910390f35b3480156101aa57600080fd5b506101b36115a9565b6040516101c09190611f9d565b60405180910390f35b3480156101d557600080fd5b506101de611649565b6040516101eb9190611e97565b60405180910390f35b6000600160009054906101000a900473ffffffffffffffffffffffffffffffffffffffff1673ffffffffffffffffffffffffffffffffffffffff163373ffffffffffffffffffffffffffffffffffffffff1614610286576040517f08c379a000000000000000000000000000000000000000000000000000000000815260040161027d90611fff565b60405180910390fd5b826003600082815260200190815260200160002060030154600160009054906101000a900473ffffffffffffffffffffffffffffffffffffffff1673ffffffffffffffffffffffffffffffffffffffff16311015610319576040517f08c379a00000000000000000000000000000000000000000000000000000000081526004016103109061211f565b60405180910390fd5b60026004811115610353577f4e487b7100000000000000000000000000000000000000000000000000000000600052602160045260246000fd5b6003600086815260200190815260200160002060060160009054906101000a900460ff1660048111156103af577f4e487b7100000000000000000000000000000000000000000000000000000000600052602160045260246000fd5b146103ef576040517f08c379a00000000000000000000000000000000000000000000000000000000081526004016103e690611fbf565b60405180910390fd5b8260036000868152602001908152602001600020600301541015610448576040517f08c379a000000000000000000000000000000000000000000000000000000000815260040161043f9061203f565b60405180910390fd5b600380600086815260200190815260200160002060060160006101000a81548160ff021916908360048111156104a7577f4e487b7100000000000000000000000000000000000000000000000000000000600052602160045260246000fd5b02179055508260036000868152602001908152602001600020600401819055508260036000868152602001908152602001600020600301546104e9919061222a565b6003600086815260200190815260200160002060050181905550600360008581526020019081526020016000206005015491505092915050565b60026000541415610569576040517f08c379a00000000000000000000000000000000000000000000000000000000081526004016105609061217f565b60405180910390fd5b6002600081905550600160048111156105ab577f4e487b7100000000000000000000000000000000000000000000000000000000600052602160045260246000fd5b6003600083815260200190815260200160002060060160009054906101000a900460ff166004811115610607577f4e487b7100000000000000000000000000000000000000000000000000000000600052602160045260246000fd5b14610647576040517f08c379a000000000000000000000000000000000000000000000000000000000815260040161063e9061215f565b60405180910390fd5b3373ffffffffffffffffffffffffffffffffffffffff16600160009054906101000a900473ffffffffffffffffffffffffffffffffffffffff1673ffffffffffffffffffffffffffffffffffffffff1614156106d8576040517f08c379a00000000000000000000000000000000000000000000000000000000081526004016106cf906120bf565b60405180910390fd5b34600360008381526020019081526020016000206003015414610730576040517f08c379a00000000000000000000000000000000000000000000000000000000081526004016107279061209f565b60405180910390fd5b336004600083815260200190815260200160002060006101000a81548173ffffffffffffffffffffffffffffffffffffffff021916908373ffffffffffffffffffffffffffffffffffffffff160217905550336003600083815260200190815260200160002060020160006101000a81548173ffffffffffffffffffffffffffffffffffffffff021916908373ffffffffffffffffffffffffffffffffffffffff16021790555060026003600083815260200190815260200160002060060160006101000a81548160ff02191690836004811115610837577f4e487b7100000000000000000000000000000000000000000000000000000000600052602160045260246000fd5b021790555060003073ffffffffffffffffffffffffffffffffffffffff163460405161086290611e82565b60006040518083038185875af1925050503d806000811461089f576040519150601f19603f3d011682016040523d82523d6000602084013e6108a4565b606091505b50509050806108e8576040517f08c379a00000000000000000000000000000000000000000000000000000000081526004016108df90611fdf565b60405180910390fd5b7fca0be5895378d39d25a8b8a85cc4f818007a053021903118020f256b4929637e6003600084815260200190815260200160002060020160009054906101000a900473ffffffffffffffffffffffffffffffffffffffff168360036000868152602001908152602001600020600301546003600087815260200190815260200160002060060160009054906101000a900460ff1660048111156109b4577f4e487b7100000000000000000000000000000000000000000000000000000000600052602160045260246000fd5b6040516109c49493929190611f05565b60405180910390a150600160008190555050565b803373ffffffffffffffffffffffffffffffffffffffff166004600083815260200190815260200160002060009054906101000a900473ffffffffffffffffffffffffffffffffffffffff1673ffffffffffffffffffffffffffffffffffffffff1614610a7a576040517f08c379a0000000000000000000000000000000000000000000000000000000008152600401610a719061207f565b60405180910390fd5b816003600082815260200190815260200160002060030154600160009054906101000a900473ffffffffffffffffffffffffffffffffffffffff1673ffffffffffffffffffffffffffffffffffffffff16311015610b0d576040517f08c379a0000000000000000000000000000000000000000000000000000000008152600401610b049061211f565b60405180910390fd5b60026000541415610b53576040517f08c379a0000000000000000000000000000000000000000000000000000000008152600401610b4a9061217f565b60405180910390fd5b600260008190555060036004811115610b95577f4e487b7100000000000000000000000000000000000000000000000000000000600052602160045260246000fd5b6003600085815260200190815260200160002060060160009054906101000a900460ff166004811115610bf1577f4e487b7100000000000000000000000000000000000000000000000000000000600052602160045260246000fd5b14610c31576040517f08c379a0000000000000000000000000000000000000000000000000000000008152600401610c289061201f565b60405180910390fd5b60046003600085815260200190815260200160002060060160006101000a81548160ff02191690836004811115610c91577f4e487b7100000000000000000000000000000000000000000000000000000000600052602160045260246000fd5b021790555060006003600085815260200190815260200160002060020160009054906101000a900473ffffffffffffffffffffffffffffffffffffffff1673ffffffffffffffffffffffffffffffffffffffff166003600086815260200190815260200160002060050154604051610d0890611e82565b60006040518083038185875af1925050503d8060008114610d45576040519150601f19603f3d011682016040523d82523d6000602084013e610d4a565b606091505b5050905080610d8e576040517f08c379a0000000000000000000000000000000000000000000000000000000008152600401610d85906120df565b60405180910390fd5b7fb2c74e219dc4de305c59d5f03e16ded9a25af8fb44202bc064d77c1ed0eb89eb600160009054906101000a900473ffffffffffffffffffffffffffffffffffffffff168560036000888152602001908152602001600020600501546003600089815260200190815260200160002060020160009054906101000a900473ffffffffffffffffffffffffffffffffffffffff16600360008a815260200190815260200160002060060160009054906101000a900460ff166004811115610e7d577f4e487b7100000000000000000000000000000000000000000000000000000000600052602160045260246000fd5b604051610e8e959493929190611eb2565b60405180910390a1506001600081905550505050565b6000600160009054906101000a900473ffffffffffffffffffffffffffffffffffffffff1673ffffffffffffffffffffffffffffffffffffffff163373ffffffffffffffffffffffffffffffffffffffff1614610f36576040517f08c379a0000000000000000000000000000000000000000000000000000000008152600401610f2d90611fff565b60405180910390fd5b47905090565b600160009054906101000a900473ffffffffffffffffffffffffffffffffffffffff1673ffffffffffffffffffffffffffffffffffffffff163373ffffffffffffffffffffffffffffffffffffffff1614610fcc576040517f08c379a0000000000000000000000000000000000000000000000000000000008152600401610fc390611fff565b60405180910390fd5b60026004811115611006577f4e487b7100000000000000000000000000000000000000000000000000000000600052602160045260246000fd5b6003600084815260200190815260200160002060060160009054906101000a900460ff166004811115611062577f4e487b7100000000000000000000000000000000000000000000000000000000600052602160045260246000fd5b14156110a3576040517f08c379a000000000000000000000000000000000000000000000000000000000815260040161109a9061205f565b60405180910390fd5b6040518060e00160405280838152602001600160009054906101000a900473ffffffffffffffffffffffffffffffffffffffff1673ffffffffffffffffffffffffffffffffffffffff168152602001600073ffffffffffffffffffffffffffffffffffffffff16815260200182815260200160008152602001600081526020016001600481111561115d577f4e487b7100000000000000000000000000000000000000000000000000000000600052602160045260246000fd5b815250600360008481526020019081526020016000206000820151816000015560208201518160010160006101000a81548173ffffffffffffffffffffffffffffffffffffffff021916908373ffffffffffffffffffffffffffffffffffffffff16021790555060408201518160020160006101000a81548173ffffffffffffffffffffffffffffffffffffffff021916908373ffffffffffffffffffffffffffffffffffffffff160217905550606082015181600301556080820151816004015560a0820151816005015560c08201518160060160006101000a81548160ff0219169083600481111561127a577f4e487b7100000000000000000000000000000000000000000000000000000000600052602160045260246000fd5b021790555090505060028290806001815401808255809150506001900390600052602060002001600090919091909150557f5d1dcc37c6dee581f057e476d5897d9481aee361934e0eb9279d12d0209124fa33838360006003600088815260200190815260200160002060060160009054906101000a900460ff16600481111561132d577f4e487b7100000000000000000000000000000000000000000000000000000000600052602160045260246000fd5b60405161133e959493929190611f4a565b60405180910390a15050565b61135261166f565b6000600481111561138c577f4e487b7100000000000000000000000000000000000000000000000000000000600052602160045260246000fd5b6003600084815260200190815260200160002060060160009054906101000a900460ff1660048111156113e8577f4e487b7100000000000000000000000000000000000000000000000000000000600052602160045260246000fd5b1415611429576040517f08c379a0000000000000000000000000000000000000000000000000000000008152600401611420906120ff565b60405180910390fd5b600360008381526020019081526020016000206040518060e0016040529081600082015481526020016001820160009054906101000a900473ffffffffffffffffffffffffffffffffffffffff1673ffffffffffffffffffffffffffffffffffffffff1673ffffffffffffffffffffffffffffffffffffffff1681526020016002820160009054906101000a900473ffffffffffffffffffffffffffffffffffffffff1673ffffffffffffffffffffffffffffffffffffffff1673ffffffffffffffffffffffffffffffffffffffff1681526020016003820154815260200160048201548152602001600582015481526020016006820160009054906101000a900460ff166004811115611566577f4e487b7100000000000000000000000000000000000000000000000000000000600052602160045260246000fd5b600481111561159e577f4e487b7100000000000000000000000000000000000000000000000000000000600052602160045260246000fd5b815250509050919050565b60606000600280549050116115f3576040517f08c379a00000000000000000000000000000000000000000000000000000000081526004016115ea9061213f565b60405180910390fd5b600280548060200260200160405190810160405280929190818152602001828054801561163f57602002820191906000526020600020905b81548152602001906001019080831161162b575b5050505050905090565b600160009054906101000a900473ffffffffffffffffffffffffffffffffffffffff1681565b6040518060e0016040528060008152602001600073ffffffffffffffffffffffffffffffffffffffff168152602001600073ffffffffffffffffffffffffffffffffffffffff1681526020016000815260200160008152602001600081526020016000600481111561170a577f4e487b7100000000000000000000000000000000000000000000000000000000600052602160045260246000fd5b81525090565b60008135905061171f81612379565b92915050565b60006020828403121561173757600080fd5b600061174584828501611710565b91505092915050565b6000806040838503121561176157600080fd5b600061176f85828601611710565b925050602061178085828601611710565b9150509250929050565b60006117968383611e64565b60208301905092915050565b6117ab816122bf565b82525050565b6117ba81612270565b82525050565b6117c981612270565b82525050565b6117d88161225e565b82525050565b6117e78161225e565b82525050565b60006117f8826121e5565b61180281856121fd565b935061180d836121d5565b8060005b8381101561183e578151611825888261178a565b9750611830836121f0565b925050600181019050611811565b5085935050505092915050565b611854816122d1565b82525050565b6000611867603e83612219565b91507f41677265656d656e74206973206e6f74206163746976652c207468657265206960008301527f73206e6f206465706f7369742072657475726e20746f20617070726f766500006020830152604082019050919050565b60006118cd601783612219565b91507f4465706f736974207061796d656e74206661696c65642e0000000000000000006000830152602082019050919050565b600061190d602a83612219565b91507f416374696f6e2063616e206f6e6c7920626520706572666f726d65642062792060008301527f61206c616e646c6f7264000000000000000000000000000000000000000000006020830152604082019050919050565b6000611973603683612219565b91507f4465706f736974206973206e6f742072656c65617365642e20506c656173652060008301527f636865636b2061677265656d656e742073746174652e000000000000000000006020830152604082019050919050565b60006119d9603083612219565b91507f446564756374696f6e732063616e6e6f7420626520677265617465722074686160008301527f6e206465706f73697420616d6f756e74000000000000000000000000000000006020830152604082019050919050565b6000611a3f603a83612219565b91507f416374697665206465706f7369742061677265656d656e7420666f722067697660008301527f656e2070726f706572747920616c7265616479206578697374730000000000006020830152604082019050919050565b6000611aa5602d83612219565b91507f54656e616e7420686173206e6f742070616964206465706f73697420666f722060008301527f746869732070726f7065727479000000000000000000000000000000000000006020830152604082019050919050565b6000611b0b601f83612219565b91507f506c6561736520706179206578616374206465706f73697420616d6f756e74006000830152602082019050919050565b6000611b4b602283612219565b91507f4465706f7369742063616e6e6f742062652070616964206279206c616e646c6f60008301527f72640000000000000000000000000000000000000000000000000000000000006020830152604082019050919050565b6000611bb1601683612219565b91507f4465706f7369742072657475726e206661696c65642e000000000000000000006000830152602082019050919050565b6000611bf1602d83612219565b91507f4e6f206465706f7369742061677265656d656e742065786973747320666f722060008301527f676976656e2061646472657373000000000000000000000000000000000000006020830152604082019050919050565b6000611c57602c83612219565b91507f436f6e74726163742062616c616e6365206973206c657373207468616e20646560008301527f706f73697420616d6f756e7400000000000000000000000000000000000000006020830152604082019050919050565b6000611cbd60008361220e565b9150600082019050919050565b6000611cd7601383612219565b91507f4e6f2070726f70657274696573206578697374000000000000000000000000006000830152602082019050919050565b6000611d17604283612219565b91507f41677265656d656e742069732065697468657220616374697665206f7220656e60008301527f6465642c2063616e6e6f7420616363657074206465706f736974207061796d6560208301527f6e740000000000000000000000000000000000000000000000000000000000006040830152606082019050919050565b6000611da3601f83612219565b91507f5265656e7472616e637947756172643a207265656e7472616e742063616c6c006000830152602082019050919050565b60e082016000820151611dec6000850182611e64565b506020820151611dff60208501826117cf565b506040820151611e1260408501826117b1565b506060820151611e256060850182611e64565b506080820151611e386080850182611e64565b5060a0820151611e4b60a0850182611e64565b5060c0820151611e5e60c085018261184b565b50505050565b611e6d816122b5565b82525050565b611e7c816122b5565b82525050565b6000611e8d82611cb0565b9150819050919050565b6000602082019050611eac60008301846117c0565b92915050565b600060a082019050611ec760008301886117a2565b611ed46020830187611e73565b611ee16040830186611e73565b611eee60608301856117a2565b611efb6080830184611e73565b9695505050505050565b6000608082019050611f1a60008301876117a2565b611f276020830186611e73565b611f346040830185611e73565b611f416060830184611e73565b95945050505050565b600060a082019050611f5f60008301886117de565b611f6c6020830187611e73565b611f796040830186611e73565b611f8660608301856117de565b611f936080830184611e73565b9695505050505050565b60006020820190508181036000830152611fb781846117ed565b905092915050565b60006020820190508181036000830152611fd88161185a565b9050919050565b60006020820190508181036000830152611ff8816118c0565b9050919050565b6000602082019050818103600083015261201881611900565b9050919050565b6000602082019050818103600083015261203881611966565b9050919050565b60006020820190508181036000830152612058816119cc565b9050919050565b6000602082019050818103600083015261207881611a32565b9050919050565b6000602082019050818103600083015261209881611a98565b9050919050565b600060208201905081810360008301526120b881611afe565b9050919050565b600060208201905081810360008301526120d881611b3e565b9050919050565b600060208201905081810360008301526120f881611ba4565b9050919050565b6000602082019050818103600083015261211881611be4565b9050919050565b6000602082019050818103600083015261213881611c4a565b9050919050565b6000602082019050818103600083015261215881611cca565b9050919050565b6000602082019050818103600083015261217881611d0a565b9050919050565b6000602082019050818103600083015261219881611d96565b9050919050565b600060e0820190506121b46000830184611dd6565b92915050565b60006020820190506121cf6000830184611e73565b92915050565b6000819050602082019050919050565b600081519050919050565b6000602082019050919050565b600082825260208201905092915050565b600081905092915050565b600082825260208201905092915050565b6000612235826122b5565b9150612240836122b5565b92508282101561225357612252612307565b5b828203905092915050565b600061226982612295565b9050919050565b600061227b82612295565b9050919050565b600081905061229082612365565b919050565b600073ffffffffffffffffffffffffffffffffffffffff82169050919050565b6000819050919050565b60006122ca826122e3565b9050919050565b60006122dc82612282565b9050919050565b60006122ee826122f5565b9050919050565b600061230082612295565b9050919050565b7f4e487b7100000000000000000000000000000000000000000000000000000000600052601160045260246000fd5b7f4e487b7100000000000000000000000000000000000000000000000000000000600052602160045260246000fd5b6005811061237657612375612336565b5b50565b612382816122b5565b811461238d57600080fd5b5056fea2646970667358221220c8df5e41ccb215f44c9cf26d5017756ed0094eb460ed10677dbde7bfb167984764736f6c63430008000033",
  "immutableReferences": {},
  "source": "// SPDX-License-Identifier: MIT\npragma solidity 0.8.0;\n\nimport \"@openzeppelin/contracts/security/ReentrancyGuard.sol\";\n\ncontract TenancyDeposit is ReentrancyGuard {\n\n  address payable public landlord;\n  uint[] internal properties;\n\n  enum AgreementState { Empty, Created, Active, Released, Ended }\n\n  struct Deposit { \n    uint propertyId;\n    address landlord;\n    address payable tenant;\n    uint depositAmount;\n    uint deductions;\n    uint returnAmount;\n    AgreementState agreementState;\n  }\n\n  mapping(uint => Deposit) internal depositByProperty;\n  mapping(uint => address) internal tenantByProperty;\n\n  event DepositAgreementCreated(address landlord, uint propertyId, uint depositAmount, address tenant, uint agreementState);\n  event DepositPaid(address tenant, uint propertyId, uint depositAmount, uint agreementState);\n  event DepositReturned(address landlord, uint propertyId, uint returnedAmount, address tenant, uint agreementState);\n\n  modifier landlordOnly() {\n    require(msg.sender == landlord, \"Action can only be performed by a landlord\");\n    _;\n  }\n\n  modifier tenantOnly(uint _propertyId) {\n    require(tenantByProperty[_propertyId] == msg.sender, \"Tenant has not paid deposit for this property\");\n    _;\n  }\n\n  modifier enoughDepositBalance(uint _propertyId) {\n    require(address(landlord).balance >= depositByProperty[_propertyId].depositAmount, \"Contract balance is less than deposit amount\"); \n    _;\n  }\n\n  constructor() {\n    landlord = payable(msg.sender);\n  }\n\n  function createDepositAgreement(uint _propertyId, uint _depositAmount) external landlordOnly {\n    require(depositByProperty[_propertyId].agreementState != AgreementState.Active,\n    \"Active deposit agreement for given property already exists\");\n\n      depositByProperty[_propertyId] = Deposit({\n        propertyId: _propertyId,\n        landlord: landlord,\n        tenant: payable(address(0)),\n        depositAmount: _depositAmount,\n        deductions: 0,\n        returnAmount: 0,\n        agreementState: AgreementState.Created\n      });\n\n    properties.push(_propertyId);\n\n    emit DepositAgreementCreated(msg.sender, _propertyId, _depositAmount, address(0), uint(depositByProperty[_propertyId].agreementState));\n  }\n\n  function payDeposit(uint _propertyId) external payable nonReentrant {\n    require(depositByProperty[_propertyId].agreementState == AgreementState.Created, \n    \"Agreement is either active or ended, cannot accept deposit payment\");\n\n    require(landlord != msg.sender,\n    \"Deposit cannot be paid by landlord\");\n\n    require(depositByProperty[_propertyId].depositAmount == msg.value, \n    \"Please pay exact deposit amount\");\n    \n    tenantByProperty[_propertyId] = msg.sender;\n\n    depositByProperty[_propertyId].tenant = payable(msg.sender);\n    depositByProperty[_propertyId].agreementState = AgreementState.Active;\n\n    (bool sent, ) = address(this).call{ value: msg.value }(\"\");\n      require(sent, \"Deposit payment failed.\");\n      \n    emit DepositPaid(depositByProperty[_propertyId].tenant, _propertyId, depositByProperty[_propertyId].depositAmount, uint(depositByProperty[_propertyId].agreementState));\n  }\n\n  function approveDepositReturn(uint _propertyId, uint _deductions) external landlordOnly enoughDepositBalance(_propertyId) returns(uint) {\n    require(depositByProperty[_propertyId].agreementState == AgreementState.Active, \n    \"Agreement is not active, there is no deposit return to approve\");\n\n    require(depositByProperty[_propertyId].depositAmount >= _deductions, \"Deductions cannot be greater than deposit amount\");\n\n    depositByProperty[_propertyId].agreementState = AgreementState.Released;\n    depositByProperty[_propertyId].deductions = _deductions;\n    depositByProperty[_propertyId].returnAmount = depositByProperty[_propertyId].depositAmount - _deductions;\n\n    return depositByProperty[_propertyId].returnAmount;\n  }\n\n  function withdrawDeposit(uint _propertyId) external tenantOnly(_propertyId) enoughDepositBalance(_propertyId) nonReentrant {\n     require(depositByProperty[_propertyId].agreementState == AgreementState.Released, \n    \"Deposit is not released. Please check agreement state.\");\n\n    depositByProperty[_propertyId].agreementState = AgreementState.Ended;\n    (bool sent, ) = depositByProperty[_propertyId].tenant.call{ value: depositByProperty[_propertyId].returnAmount }(\"\");\n      require(sent, \"Deposit return failed.\");\n    emit DepositReturned(landlord, _propertyId, depositByProperty[_propertyId].returnAmount,depositByProperty[_propertyId].tenant, uint(depositByProperty[_propertyId].agreementState));\n  }\n\n  function getDeposit(uint _propertyId) external view returns(Deposit memory) {\n    require(depositByProperty[_propertyId].agreementState != AgreementState.Empty, \"No deposit agreement exists for given address\");\n    return depositByProperty[_propertyId];\n  }\n  \n  function getPropertyIds() external view returns(uint[] memory) {\n    require(properties.length > 0, \"No properties exist\");\n    return properties;\n  }\n\n  function depositBalances() external view landlordOnly returns(uint) {\n    return uint(address(this).balance);\n  }\n  \n  receive() external payable {\n  }\n}",
  "sourcePath": "/Users/hardeep.nagra/projects/blockchain-developer-bootcamp-final-project/contracts/TenancyDeposit.sol",
  "compiler": {
    "name": "solc",
    "version": "0.8.0+commit.c7dfd78e.Emscripten.clang"
  },
  "schemaVersion": "3.4.3",
  "updatedAt": "2021-11-30T21:37:17.862Z",
  "networkType": "ethereum",
  "devdoc": {
    "kind": "dev",
    "methods": {},
    "version": 1
  },
  "userdoc": {
    "kind": "user",
    "methods": {},
    "version": 1
  }
}