{
  "contractName": "TenancyDeposit",
  "abi": [
    {
      "inputs": [
        {
          "internalType": "address",
          "name": "_landlord",
          "type": "address"
        },
        {
          "internalType": "address",
          "name": "_tenant",
          "type": "address"
        },
        {
          "internalType": "address",
          "name": "_adjudicator",
          "type": "address"
        },
        {
          "internalType": "uint256",
          "name": "_propertyId",
          "type": "uint256"
        },
        {
          "internalType": "uint256",
          "name": "_depositRequired",
          "type": "uint256"
        }
      ],
      "stateMutability": "nonpayable",
      "type": "constructor"
    },
    {
      "anonymous": false,
      "inputs": [
        {
          "indexed": true,
          "internalType": "address",
          "name": "tenant",
          "type": "address"
        },
        {
          "indexed": false,
          "internalType": "uint256",
          "name": "depositAmount",
          "type": "uint256"
        },
        {
          "indexed": false,
          "internalType": "uint256",
          "name": "propertyId",
          "type": "uint256"
        },
        {
          "indexed": false,
          "internalType": "bool",
          "name": "agreementState",
          "type": "bool"
        }
      ],
      "name": "LogDepositPaid",
      "type": "event"
    },
    {
      "anonymous": false,
      "inputs": [
        {
          "indexed": true,
          "internalType": "address",
          "name": "landlord",
          "type": "address"
        },
        {
          "indexed": true,
          "internalType": "address",
          "name": "tenant",
          "type": "address"
        },
        {
          "indexed": false,
          "internalType": "uint256",
          "name": "returnedAmount",
          "type": "uint256"
        },
        {
          "indexed": false,
          "internalType": "uint256",
          "name": "propertyId",
          "type": "uint256"
        },
        {
          "indexed": false,
          "internalType": "bool",
          "name": "agreementState",
          "type": "bool"
        }
      ],
      "name": "LogDepositReturn",
      "type": "event"
    },
    {
      "inputs": [],
      "name": "adjudicator",
      "outputs": [
        {
          "internalType": "address",
          "name": "",
          "type": "address"
        }
      ],
      "stateMutability": "view",
      "type": "function"
    },
    {
      "inputs": [],
      "name": "amountToRefund",
      "outputs": [
        {
          "internalType": "uint256",
          "name": "",
          "type": "uint256"
        }
      ],
      "stateMutability": "view",
      "type": "function"
    },
    {
      "inputs": [],
      "name": "depositPaid",
      "outputs": [
        {
          "internalType": "uint256",
          "name": "",
          "type": "uint256"
        }
      ],
      "stateMutability": "view",
      "type": "function"
    },
    {
      "inputs": [],
      "name": "depositRequired",
      "outputs": [
        {
          "internalType": "uint256",
          "name": "",
          "type": "uint256"
        }
      ],
      "stateMutability": "view",
      "type": "function"
    },
    {
      "inputs": [],
      "name": "isAgreementActive",
      "outputs": [
        {
          "internalType": "bool",
          "name": "",
          "type": "bool"
        }
      ],
      "stateMutability": "view",
      "type": "function"
    },
    {
      "inputs": [],
      "name": "landlord",
      "outputs": [
        {
          "internalType": "address",
          "name": "",
          "type": "address"
        }
      ],
      "stateMutability": "view",
      "type": "function"
    },
    {
      "inputs": [],
      "name": "propertyId",
      "outputs": [
        {
          "internalType": "uint256",
          "name": "",
          "type": "uint256"
        }
      ],
      "stateMutability": "view",
      "type": "function"
    },
    {
      "inputs": [],
      "name": "tenant",
      "outputs": [
        {
          "internalType": "address",
          "name": "",
          "type": "address"
        }
      ],
      "stateMutability": "view",
      "type": "function"
    },
    {
      "stateMutability": "payable",
      "type": "receive"
    },
    {
      "inputs": [],
      "name": "returnDeposit",
      "outputs": [],
      "stateMutability": "nonpayable",
      "type": "function"
    },
    {
      "inputs": [],
      "name": "getDepositBalance",
      "outputs": [
        {
          "internalType": "uint256",
          "name": "",
          "type": "uint256"
        }
      ],
      "stateMutability": "view",
      "type": "function"
    }
  ],
  "bytecode": "0x60806040523480156200001157600080fd5b50604051620013a0380380620013a083398181016040528101906200003791906200037a565b6001600081905550600073ffffffffffffffffffffffffffffffffffffffff168573ffffffffffffffffffffffffffffffffffffffff161415620000b2576040517f08c379a0000000000000000000000000000000000000000000000000000000008152600401620000a99062000463565b60405180910390fd5b600073ffffffffffffffffffffffffffffffffffffffff168473ffffffffffffffffffffffffffffffffffffffff16141562000125576040517f08c379a00000000000000000000000000000000000000000000000000000000081526004016200011c90620004d5565b60405180910390fd5b600073ffffffffffffffffffffffffffffffffffffffff168373ffffffffffffffffffffffffffffffffffffffff16141562000198576040517f08c379a00000000000000000000000000000000000000000000000000000000081526004016200018f9062000547565b60405180910390fd5b60008111620001de576040517f08c379a0000000000000000000000000000000000000000000000000000000008152600401620001d590620005b9565b60405180910390fd5b84600160006101000a81548173ffffffffffffffffffffffffffffffffffffffff021916908373ffffffffffffffffffffffffffffffffffffffff16021790555083600260006101000a81548173ffffffffffffffffffffffffffffffffffffffff021916908373ffffffffffffffffffffffffffffffffffffffff16021790555082600360006101000a81548173ffffffffffffffffffffffffffffffffffffffff021916908373ffffffffffffffffffffffffffffffffffffffff16021790555081600481905550806005819055506000600860006101000a81548160ff0219169083151502179055505050505050620005db565b600080fd5b600073ffffffffffffffffffffffffffffffffffffffff82169050919050565b60006200030782620002da565b9050919050565b6200031981620002fa565b81146200032557600080fd5b50565b60008151905062000339816200030e565b92915050565b6000819050919050565b62000354816200033f565b81146200036057600080fd5b50565b600081519050620003748162000349565b92915050565b600080600080600060a08688031215620003995762000398620002d5565b5b6000620003a98882890162000328565b9550506020620003bc8882890162000328565b9450506040620003cf8882890162000328565b9350506060620003e28882890162000363565b9250506080620003f58882890162000363565b9150509295509295909350565b600082825260208201905092915050565b7f4c616e646c6f7264206164647265737320696e76616c69640000000000000000600082015250565b60006200044b60188362000402565b9150620004588262000413565b602082019050919050565b600060208201905081810360008301526200047e816200043c565b9050919050565b7f54656e616e74206164647265737320696e76616c696400000000000000000000600082015250565b6000620004bd60168362000402565b9150620004ca8262000485565b602082019050919050565b60006020820190508181036000830152620004f081620004ae565b9050919050565b7f41646a7564696361746f72206164647265737320696e76616c69640000000000600082015250565b60006200052f601b8362000402565b91506200053c82620004f7565b602082019050919050565b60006020820190508181036000830152620005628162000520565b9050919050565b7f5265717569726564206465706f7369742063616e6e6f74206265203000000000600082015250565b6000620005a1601c8362000402565b9150620005ae8262000569565b602082019050919050565b60006020820190508181036000830152620005d48162000592565b9050919050565b610db580620005eb6000396000f3fe6080604052600436106100955760003560e01c8063d25a339811610059578063d25a339814610311578063dc1997ea1461033c578063e697103714610367578063ee7a3b8e14610392578063ef3ab330146103bd57610249565b80630497de4a1461024e5780632a9605f41461027957806353c2ed8e146102a45780637e88f603146102cf578063adf07791146102e657610249565b366102495760055434146100de576040517f08c379a00000000000000000000000000000000000000000000000000000000081526004016100d590610844565b60405180910390fd5b600260009054906101000a900473ffffffffffffffffffffffffffffffffffffffff1673ffffffffffffffffffffffffffffffffffffffff163373ffffffffffffffffffffffffffffffffffffffff161461016e576040517f08c379a0000000000000000000000000000000000000000000000000000000008152600401610165906108d6565b60405180910390fd5b600860009054906101000a900460ff16156101be576040517f08c379a00000000000000000000000000000000000000000000000000000000081526004016101b590610968565b60405180910390fd5b6001600860006101000a81548160ff0219169083151502179055506005546006819055503373ffffffffffffffffffffffffffffffffffffffff167f1d26af0b3a7ba56ae04412895696b160d69dba8fc6929c86a5b1c115ec6700e0600654600454600860009054906101000a900460ff1660405161023f939291906109bc565b60405180910390a2005b600080fd5b34801561025a57600080fd5b506102636103e8565b60405161027091906109f3565b60405180910390f35b34801561028557600080fd5b5061028e6103f0565b60405161029b91906109f3565b60405180910390f35b3480156102b057600080fd5b506102b96103f6565b6040516102c69190610a4f565b60405180910390f35b3480156102db57600080fd5b506102e461041c565b005b3480156102f257600080fd5b506102fb610750565b6040516103089190610a4f565b60405180910390f35b34801561031d57600080fd5b50610326610776565b60405161033391906109f3565b60405180910390f35b34801561034857600080fd5b5061035161077c565b60405161035e9190610a4f565b60405180910390f35b34801561037357600080fd5b5061037c6107a2565b6040516103899190610a6a565b60405180910390f35b34801561039e57600080fd5b506103a76107b5565b6040516103b491906109f3565b60405180910390f35b3480156103c957600080fd5b506103d26107bb565b6040516103df91906109f3565b60405180910390f35b600047905090565b60055481565b600360009054906101000a900473ffffffffffffffffffffffffffffffffffffffff1681565b600160009054906101000a900473ffffffffffffffffffffffffffffffffffffffff1673ffffffffffffffffffffffffffffffffffffffff163373ffffffffffffffffffffffffffffffffffffffff16146104ac576040517f08c379a00000000000000000000000000000000000000000000000000000000081526004016104a390610af7565b60405180910390fd5b6005544710156104f1576040517f08c379a00000000000000000000000000000000000000000000000000000000081526004016104e890610b89565b60405180910390fd5b60026000541415610537576040517f08c379a000000000000000000000000000000000000000000000000000000000815260040161052e90610bf5565b60405180910390fd5b6002600081905550600860009054906101000a900460ff1661058e576040517f08c379a000000000000000000000000000000000000000000000000000000000815260040161058590610cad565b60405180910390fd5b6000600654905060006006819055506000600860006101000a81548160ff0219169083151502179055506000600260009054906101000a900473ffffffffffffffffffffffffffffffffffffffff1673ffffffffffffffffffffffffffffffffffffffff168260405161060090610cfe565b60006040518083038185875af1925050503d806000811461063d576040519150601f19603f3d011682016040523d82523d6000602084013e610642565b606091505b5050905080610686576040517f08c379a000000000000000000000000000000000000000000000000000000000815260040161067d90610d5f565b60405180910390fd5b600260009054906101000a900473ffffffffffffffffffffffffffffffffffffffff1673ffffffffffffffffffffffffffffffffffffffff16600160009054906101000a900473ffffffffffffffffffffffffffffffffffffffff1673ffffffffffffffffffffffffffffffffffffffff167f9263d4dbe574fe8bfdb600fb2c5bec52395e9eba8f180eadfafb5fc7d755354884600454600860009054906101000a900460ff1660405161073c939291906109bc565b60405180910390a350506001600081905550565b600260009054906101000a900473ffffffffffffffffffffffffffffffffffffffff1681565b60075481565b600160009054906101000a900473ffffffffffffffffffffffffffffffffffffffff1681565b600860009054906101000a900460ff1681565b60045481565b60065481565b600082825260208201905092915050565b7f506c656173652070617920746865206578616374206465706f7369742072657160008201527f7569726564000000000000000000000000000000000000000000000000000000602082015250565b600061082e6025836107c1565b9150610839826107d2565b604082019050919050565b6000602082019050818103600083015261085d81610821565b9050919050565b7f416374696f6e2063616e206f6e6c7920626520706572666f726d65642062792060008201527f612074656e616e74000000000000000000000000000000000000000000000000602082015250565b60006108c06028836107c1565b91506108cb82610864565b604082019050919050565b600060208201905081810360008301526108ef816108b3565b9050919050565b7f41677265656d656e742069732061637469766520616e64206465706f7369742060008201527f68617320616c7265616479206265656e20706169642062792074656e616e7400602082015250565b6000610952603f836107c1565b915061095d826108f6565b604082019050919050565b6000602082019050818103600083015261098181610945565b9050919050565b6000819050919050565b61099b81610988565b82525050565b60008115159050919050565b6109b6816109a1565b82525050565b60006060820190506109d16000830186610992565b6109de6020830185610992565b6109eb60408301846109ad565b949350505050565b6000602082019050610a086000830184610992565b92915050565b600073ffffffffffffffffffffffffffffffffffffffff82169050919050565b6000610a3982610a0e565b9050919050565b610a4981610a2e565b82525050565b6000602082019050610a646000830184610a40565b92915050565b6000602082019050610a7f60008301846109ad565b92915050565b7f416374696f6e2063616e206f6e6c7920626520706572666f726d65642062792060008201527f61206c616e646c6f726400000000000000000000000000000000000000000000602082015250565b6000610ae1602a836107c1565b9150610aec82610a85565b604082019050919050565b60006020820190508181036000830152610b1081610ad4565b9050919050565b7f436f6e74726163742062616c616e6365206973206c657373207468616e20646560008201527f706f73697420616d6f756e740000000000000000000000000000000000000000602082015250565b6000610b73602c836107c1565b9150610b7e82610b17565b604082019050919050565b60006020820190508181036000830152610ba281610b66565b9050919050565b7f5265656e7472616e637947756172643a207265656e7472616e742063616c6c00600082015250565b6000610bdf601f836107c1565b9150610bea82610ba9565b602082019050919050565b60006020820190508181036000830152610c0e81610bd2565b9050919050565b7f41677265656d656e74206973206e6f206c6f6e6765722061637469766520616e60008201527f64206465706f7369742068617320616c7265616479206265656e20726574757260208201527f6e656420746f2074656e616e7400000000000000000000000000000000000000604082015250565b6000610c97604d836107c1565b9150610ca282610c15565b606082019050919050565b60006020820190508181036000830152610cc681610c8a565b9050919050565b600081905092915050565b50565b6000610ce8600083610ccd565b9150610cf382610cd8565b600082019050919050565b6000610d0982610cdb565b9150819050919050565b7f4465706f7369742072657475726e206661696c65642e00000000000000000000600082015250565b6000610d496016836107c1565b9150610d5482610d13565b602082019050919050565b60006020820190508181036000830152610d7881610d3c565b905091905056fea2646970667358221220e3ca0b295d7fc7b0cf94eef4c8e3a683b30785ea482a1a98bb54c19a989f384b64736f6c634300080a0033",
  "immutableReferences": {},
  "source": "// SPDX-License-Identifier: MIT\npragma solidity ^0.8.0;\n\nimport \"@openzeppelin/contracts/security/ReentrancyGuard.sol\";\n\ncontract TenancyDeposit is ReentrancyGuard {\n\n  address public landlord;\n  address public tenant;\n  address public adjudicator;\n\n  uint public propertyId;\n  uint public depositRequired;\n  uint public depositPaid;\n  uint public amountToRefund;\n\n  bool public isAgreementActive;\n\n  event LogDepositPaid(address indexed tenant, uint depositAmount, uint propertyId, bool agreementState);\n  event LogDepositReturn(address indexed landlord, address indexed tenant, uint returnedAmount, uint propertyId, bool agreementState);\n\n  modifier tenantOnly() {\n    require(msg.sender == tenant, \"Action can only be performed by a tenant\");\n    _;\n  }\n\n  modifier landlordOnly() {\n    require(msg.sender == landlord, \"Action can only be performed by a landlord\");\n    _;\n  }\n\n  modifier adjudicatorOnly() {\n    require(msg.sender == adjudicator, \"Action can only be performed by an adjudicator\");\n    _;\n  }\n\n   modifier paidCorrectDeposit() { \n    require(msg.value == depositRequired, \"Please pay the exact deposit required\"); \n    _;\n  }\n\n  modifier enoughDepositBalance() {\n    require(address(this).balance >= depositRequired, \"Contract balance is less than deposit amount\"); \n    _;\n  }\n\n  modifier checkDepositPaidAmount() {\n    _;\n    amountToRefund = msg.value - depositRequired;\n    if (amountToRefund > 0) {\n      (bool success, ) = tenant.call{value:amountToRefund}(\"\");\n      require(success, \"Transfer failed.\");\n    }\n  }\n\n  constructor( address _landlord, address _tenant, address _adjudicator, uint _propertyId, uint _depositRequired) {\n    require(_landlord != address(0), \"Landlord address invalid\");\n    require(_tenant != address(0), \"Tenant address invalid\");\n    require(_adjudicator != address(0), \"Adjudicator address invalid\");\n    require(_depositRequired > 0, \"Required deposit cannot be 0\");\n\n    landlord = _landlord;\n    tenant = _tenant;\n    adjudicator = _adjudicator;\n    propertyId = _propertyId;\n    depositRequired = _depositRequired;\n    isAgreementActive = false;\n  }\n\n  receive() external payable paidCorrectDeposit tenantOnly {\n    require(!isAgreementActive, \"Agreement is active and deposit has already been paid by tenant\");\n    isAgreementActive = true;\n    depositPaid = depositRequired;\n    emit LogDepositPaid(msg.sender, depositPaid, propertyId, isAgreementActive);\n  }\n\n  function returnDeposit() public landlordOnly enoughDepositBalance nonReentrant {\n    require(isAgreementActive, \"Agreement is no longer active and deposit has already been returned to tenant\");\n\n    uint depositToReturn = depositPaid;\n    depositPaid = 0;\n    isAgreementActive = false;\n    (bool success, ) = tenant.call{value:depositToReturn}(\"\");\n    require(success, \"Deposit return failed.\");\n    emit LogDepositReturn(landlord, tenant, depositToReturn, propertyId, isAgreementActive);\n  }\n\n  function getDepositBalance() public view returns (uint) {\n    return address(this).balance;\n  }\n}",
  "sourcePath": "/Users/hardeep.nagra/projects/blockchain-developer-bootcamp-final-project/contracts/TenancyDeposit.sol",
  "compiler": {
    "name": "solc",
    "version": "0.8.10+commit.fc410830.Emscripten.clang"
  },
  "schemaVersion": "3.4.3",
  "updatedAt": "2021-11-21T22:24:00.114Z",
  "devdoc": {
    "kind": "dev",
    "methods": {},
    "version": 1
  },
  "userdoc": {
    "kind": "user",
    "methods": {},
    "version": 1
  }
}