{
  "contractName": "TenancyDeposit",
  "abi": [
    {
      "inputs": [],
      "stateMutability": "nonpayable",
      "type": "constructor"
    },
    {
      "anonymous": false,
      "inputs": [
        {
          "indexed": false,
          "internalType": "address",
          "name": "landlord",
          "type": "address"
        },
        {
          "indexed": false,
          "internalType": "uint256",
          "name": "propertyId",
          "type": "uint256"
        },
        {
          "indexed": false,
          "internalType": "uint256",
          "name": "depositAmount",
          "type": "uint256"
        },
        {
          "indexed": false,
          "internalType": "address",
          "name": "tenant",
          "type": "address"
        },
        {
          "indexed": false,
          "internalType": "uint256",
          "name": "agreementState",
          "type": "uint256"
        }
      ],
      "name": "DepositAgreementCreated",
      "type": "event"
    },
    {
      "anonymous": false,
      "inputs": [
        {
          "indexed": false,
          "internalType": "address",
          "name": "tenant",
          "type": "address"
        },
        {
          "indexed": false,
          "internalType": "uint256",
          "name": "propertyId",
          "type": "uint256"
        },
        {
          "indexed": false,
          "internalType": "uint256",
          "name": "depositAmount",
          "type": "uint256"
        },
        {
          "indexed": false,
          "internalType": "uint256",
          "name": "agreementState",
          "type": "uint256"
        }
      ],
      "name": "DepositPaid",
      "type": "event"
    },
    {
      "anonymous": false,
      "inputs": [
        {
          "indexed": false,
          "internalType": "address",
          "name": "landlord",
          "type": "address"
        },
        {
          "indexed": false,
          "internalType": "uint256",
          "name": "propertyId",
          "type": "uint256"
        },
        {
          "indexed": false,
          "internalType": "uint256",
          "name": "returnedAmount",
          "type": "uint256"
        },
        {
          "indexed": false,
          "internalType": "address",
          "name": "tenant",
          "type": "address"
        },
        {
          "indexed": false,
          "internalType": "uint256",
          "name": "agreementState",
          "type": "uint256"
        }
      ],
      "name": "DepositReturned",
      "type": "event"
    },
    {
      "inputs": [],
      "name": "landlord",
      "outputs": [
        {
          "internalType": "address payable",
          "name": "",
          "type": "address"
        }
      ],
      "stateMutability": "view",
      "type": "function",
      "constant": true
    },
    {
      "stateMutability": "payable",
      "type": "receive",
      "payable": true
    },
    {
      "inputs": [
        {
          "internalType": "uint256",
          "name": "_propertyId",
          "type": "uint256"
        },
        {
          "internalType": "uint256",
          "name": "_depositAmount",
          "type": "uint256"
        }
      ],
      "name": "createDepositAgreement",
      "outputs": [],
      "stateMutability": "nonpayable",
      "type": "function"
    },
    {
      "inputs": [
        {
          "internalType": "uint256",
          "name": "_propertyId",
          "type": "uint256"
        }
      ],
      "name": "payDeposit",
      "outputs": [],
      "stateMutability": "payable",
      "type": "function",
      "payable": true
    },
    {
      "inputs": [
        {
          "internalType": "uint256",
          "name": "_propertyId",
          "type": "uint256"
        },
        {
          "internalType": "uint256",
          "name": "_deductions",
          "type": "uint256"
        }
      ],
      "name": "approveDepositReturn",
      "outputs": [
        {
          "internalType": "uint256",
          "name": "",
          "type": "uint256"
        }
      ],
      "stateMutability": "nonpayable",
      "type": "function"
    },
    {
      "inputs": [
        {
          "internalType": "uint256",
          "name": "_propertyId",
          "type": "uint256"
        }
      ],
      "name": "withdrawDeposit",
      "outputs": [],
      "stateMutability": "nonpayable",
      "type": "function"
    },
    {
      "inputs": [
        {
          "internalType": "uint256",
          "name": "_propertyId",
          "type": "uint256"
        }
      ],
      "name": "getDeposit",
      "outputs": [
        {
          "components": [
            {
              "internalType": "uint256",
              "name": "propertyId",
              "type": "uint256"
            },
            {
              "internalType": "address",
              "name": "landlord",
              "type": "address"
            },
            {
              "internalType": "address payable",
              "name": "tenant",
              "type": "address"
            },
            {
              "internalType": "uint256",
              "name": "depositAmount",
              "type": "uint256"
            },
            {
              "internalType": "uint256",
              "name": "deductions",
              "type": "uint256"
            },
            {
              "internalType": "uint256",
              "name": "returnAmount",
              "type": "uint256"
            },
            {
              "internalType": "enum TenancyDeposit.AgreementState",
              "name": "agreementState",
              "type": "uint8"
            }
          ],
          "internalType": "struct TenancyDeposit.Deposit",
          "name": "",
          "type": "tuple"
        }
      ],
      "stateMutability": "view",
      "type": "function",
      "constant": true
    },
    {
      "inputs": [],
      "name": "getPropertyIds",
      "outputs": [
        {
          "internalType": "uint256[]",
          "name": "",
          "type": "uint256[]"
        }
      ],
      "stateMutability": "view",
      "type": "function",
      "constant": true
    },
    {
      "inputs": [],
      "name": "depositBalances",
      "outputs": [
        {
          "internalType": "uint256",
          "name": "",
          "type": "uint256"
        }
      ],
      "stateMutability": "view",
      "type": "function",
      "constant": true
    }
  ],
  "bytecode": "0x608060405234801561001057600080fd5b50600160008190555033600160006101000a81548173ffffffffffffffffffffffffffffffffffffffff021916908373ffffffffffffffffffffffffffffffffffffffff160217905550612354806100696000396000f3fe60806040526004361061007f5760003560e01c8063439b72631161004e578063439b7263146101385780639f9fb96814610161578063bb20b8d21461019e578063dc1997ea146101c957610086565b806310b8bab21461008b57806328cd3f18146100c857806333289a46146100e4578063357475891461010d57610086565b3661008657005b600080fd5b34801561009757600080fd5b506100b260048036038101906100ad91906116dc565b6101f4565b6040516100bf9190612148565b60405180910390f35b6100e260048036038101906100dd91906116b3565b6104ea565b005b3480156100f057600080fd5b5061010b600480360381019061010691906116b3565b61099f565b005b34801561011957600080fd5b50610122610e32565b60405161012f9190612148565b60405180910390f35b34801561014457600080fd5b5061015f600480360381019061015a91906116dc565b610eca565b005b34801561016d57600080fd5b50610188600480360381019061018391906116b3565b6112d8565b604051610195919061212d565b60405180910390f35b3480156101aa57600080fd5b506101b3611537565b6040516101c09190611f2b565b60405180910390f35b3480156101d557600080fd5b506101de6115d7565b6040516101eb9190611e25565b60405180910390f35b6000600160009054906101000a900473ffffffffffffffffffffffffffffffffffffffff1673ffffffffffffffffffffffffffffffffffffffff163373ffffffffffffffffffffffffffffffffffffffff1614610286576040517f08c379a000000000000000000000000000000000000000000000000000000000815260040161027d90611f8d565b60405180910390fd5b8260036000828152602001908152602001600020600301544710156102e0576040517f08c379a00000000000000000000000000000000000000000000000000000000081526004016102d7906120ad565b60405180910390fd5b6002600481111561031a577f4e487b7100000000000000000000000000000000000000000000000000000000600052602160045260246000fd5b6003600086815260200190815260200160002060060160009054906101000a900460ff166004811115610376577f4e487b7100000000000000000000000000000000000000000000000000000000600052602160045260246000fd5b146103b6576040517f08c379a00000000000000000000000000000000000000000000000000000000081526004016103ad90611f4d565b60405180910390fd5b826003600086815260200190815260200160002060030154101561040f576040517f08c379a000000000000000000000000000000000000000000000000000000000815260040161040690611fcd565b60405180910390fd5b600380600086815260200190815260200160002060060160006101000a81548160ff0219169083600481111561046e577f4e487b7100000000000000000000000000000000000000000000000000000000600052602160045260246000fd5b02179055508260036000868152602001908152602001600020600401819055508260036000868152602001908152602001600020600301546104b091906121b8565b6003600086815260200190815260200160002060050181905550600360008581526020019081526020016000206005015491505092915050565b60026000541415610530576040517f08c379a00000000000000000000000000000000000000000000000000000000081526004016105279061210d565b60405180910390fd5b600260008190555060016004811115610572577f4e487b7100000000000000000000000000000000000000000000000000000000600052602160045260246000fd5b6003600083815260200190815260200160002060060160009054906101000a900460ff1660048111156105ce577f4e487b7100000000000000000000000000000000000000000000000000000000600052602160045260246000fd5b1461060e576040517f08c379a0000000000000000000000000000000000000000000000000000000008152600401610605906120ed565b60405180910390fd5b3373ffffffffffffffffffffffffffffffffffffffff16600160009054906101000a900473ffffffffffffffffffffffffffffffffffffffff1673ffffffffffffffffffffffffffffffffffffffff16141561069f576040517f08c379a00000000000000000000000000000000000000000000000000000000081526004016106969061204d565b60405180910390fd5b346003600083815260200190815260200160002060030154146106f7576040517f08c379a00000000000000000000000000000000000000000000000000000000081526004016106ee9061202d565b60405180910390fd5b336004600083815260200190815260200160002060006101000a81548173ffffffffffffffffffffffffffffffffffffffff021916908373ffffffffffffffffffffffffffffffffffffffff160217905550336003600083815260200190815260200160002060020160006101000a81548173ffffffffffffffffffffffffffffffffffffffff021916908373ffffffffffffffffffffffffffffffffffffffff16021790555060026003600083815260200190815260200160002060060160006101000a81548160ff021916908360048111156107fe577f4e487b7100000000000000000000000000000000000000000000000000000000600052602160045260246000fd5b021790555060003073ffffffffffffffffffffffffffffffffffffffff163460405161082990611e10565b60006040518083038185875af1925050503d8060008114610866576040519150601f19603f3d011682016040523d82523d6000602084013e61086b565b606091505b50509050806108af576040517f08c379a00000000000000000000000000000000000000000000000000000000081526004016108a690611f6d565b60405180910390fd5b7fca0be5895378d39d25a8b8a85cc4f818007a053021903118020f256b4929637e6003600084815260200190815260200160002060020160009054906101000a900473ffffffffffffffffffffffffffffffffffffffff168360036000868152602001908152602001600020600301546003600087815260200190815260200160002060060160009054906101000a900460ff16600481111561097b577f4e487b7100000000000000000000000000000000000000000000000000000000600052602160045260246000fd5b60405161098b9493929190611e93565b60405180910390a150600160008190555050565b803373ffffffffffffffffffffffffffffffffffffffff166004600083815260200190815260200160002060009054906101000a900473ffffffffffffffffffffffffffffffffffffffff1673ffffffffffffffffffffffffffffffffffffffff1614610a41576040517f08c379a0000000000000000000000000000000000000000000000000000000008152600401610a389061200d565b60405180910390fd5b816003600082815260200190815260200160002060030154471015610a9b576040517f08c379a0000000000000000000000000000000000000000000000000000000008152600401610a92906120ad565b60405180910390fd5b60026000541415610ae1576040517f08c379a0000000000000000000000000000000000000000000000000000000008152600401610ad89061210d565b60405180910390fd5b600260008190555060036004811115610b23577f4e487b7100000000000000000000000000000000000000000000000000000000600052602160045260246000fd5b6003600085815260200190815260200160002060060160009054906101000a900460ff166004811115610b7f577f4e487b7100000000000000000000000000000000000000000000000000000000600052602160045260246000fd5b14610bbf576040517f08c379a0000000000000000000000000000000000000000000000000000000008152600401610bb690611fad565b60405180910390fd5b60046003600085815260200190815260200160002060060160006101000a81548160ff02191690836004811115610c1f577f4e487b7100000000000000000000000000000000000000000000000000000000600052602160045260246000fd5b021790555060006003600085815260200190815260200160002060020160009054906101000a900473ffffffffffffffffffffffffffffffffffffffff1673ffffffffffffffffffffffffffffffffffffffff166003600086815260200190815260200160002060050154604051610c9690611e10565b60006040518083038185875af1925050503d8060008114610cd3576040519150601f19603f3d011682016040523d82523d6000602084013e610cd8565b606091505b5050905080610d1c576040517f08c379a0000000000000000000000000000000000000000000000000000000008152600401610d139061206d565b60405180910390fd5b7fb2c74e219dc4de305c59d5f03e16ded9a25af8fb44202bc064d77c1ed0eb89eb600160009054906101000a900473ffffffffffffffffffffffffffffffffffffffff168560036000888152602001908152602001600020600501546003600089815260200190815260200160002060020160009054906101000a900473ffffffffffffffffffffffffffffffffffffffff16600360008a815260200190815260200160002060060160009054906101000a900460ff166004811115610e0b577f4e487b7100000000000000000000000000000000000000000000000000000000600052602160045260246000fd5b604051610e1c959493929190611e40565b60405180910390a1506001600081905550505050565b6000600160009054906101000a900473ffffffffffffffffffffffffffffffffffffffff1673ffffffffffffffffffffffffffffffffffffffff163373ffffffffffffffffffffffffffffffffffffffff1614610ec4576040517f08c379a0000000000000000000000000000000000000000000000000000000008152600401610ebb90611f8d565b60405180910390fd5b47905090565b600160009054906101000a900473ffffffffffffffffffffffffffffffffffffffff1673ffffffffffffffffffffffffffffffffffffffff163373ffffffffffffffffffffffffffffffffffffffff1614610f5a576040517f08c379a0000000000000000000000000000000000000000000000000000000008152600401610f5190611f8d565b60405180910390fd5b60026004811115610f94577f4e487b7100000000000000000000000000000000000000000000000000000000600052602160045260246000fd5b6003600084815260200190815260200160002060060160009054906101000a900460ff166004811115610ff0577f4e487b7100000000000000000000000000000000000000000000000000000000600052602160045260246000fd5b1415611031576040517f08c379a000000000000000000000000000000000000000000000000000000000815260040161102890611fed565b60405180910390fd5b6040518060e00160405280838152602001600160009054906101000a900473ffffffffffffffffffffffffffffffffffffffff1673ffffffffffffffffffffffffffffffffffffffff168152602001600073ffffffffffffffffffffffffffffffffffffffff1681526020018281526020016000815260200160008152602001600160048111156110eb577f4e487b7100000000000000000000000000000000000000000000000000000000600052602160045260246000fd5b815250600360008481526020019081526020016000206000820151816000015560208201518160010160006101000a81548173ffffffffffffffffffffffffffffffffffffffff021916908373ffffffffffffffffffffffffffffffffffffffff16021790555060408201518160020160006101000a81548173ffffffffffffffffffffffffffffffffffffffff021916908373ffffffffffffffffffffffffffffffffffffffff160217905550606082015181600301556080820151816004015560a0820151816005015560c08201518160060160006101000a81548160ff02191690836004811115611208577f4e487b7100000000000000000000000000000000000000000000000000000000600052602160045260246000fd5b021790555090505060028290806001815401808255809150506001900390600052602060002001600090919091909150557f5d1dcc37c6dee581f057e476d5897d9481aee361934e0eb9279d12d0209124fa33838360006003600088815260200190815260200160002060060160009054906101000a900460ff1660048111156112bb577f4e487b7100000000000000000000000000000000000000000000000000000000600052602160045260246000fd5b6040516112cc959493929190611ed8565b60405180910390a15050565b6112e06115fd565b6000600481111561131a577f4e487b7100000000000000000000000000000000000000000000000000000000600052602160045260246000fd5b6003600084815260200190815260200160002060060160009054906101000a900460ff166004811115611376577f4e487b7100000000000000000000000000000000000000000000000000000000600052602160045260246000fd5b14156113b7576040517f08c379a00000000000000000000000000000000000000000000000000000000081526004016113ae9061208d565b60405180910390fd5b600360008381526020019081526020016000206040518060e0016040529081600082015481526020016001820160009054906101000a900473ffffffffffffffffffffffffffffffffffffffff1673ffffffffffffffffffffffffffffffffffffffff1673ffffffffffffffffffffffffffffffffffffffff1681526020016002820160009054906101000a900473ffffffffffffffffffffffffffffffffffffffff1673ffffffffffffffffffffffffffffffffffffffff1673ffffffffffffffffffffffffffffffffffffffff1681526020016003820154815260200160048201548152602001600582015481526020016006820160009054906101000a900460ff1660048111156114f4577f4e487b7100000000000000000000000000000000000000000000000000000000600052602160045260246000fd5b600481111561152c577f4e487b7100000000000000000000000000000000000000000000000000000000600052602160045260246000fd5b815250509050919050565b6060600060028054905011611581576040517f08c379a0000000000000000000000000000000000000000000000000000000008152600401611578906120cd565b60405180910390fd5b60028054806020026020016040519081016040528092919081815260200182805480156115cd57602002820191906000526020600020905b8154815260200190600101908083116115b9575b5050505050905090565b600160009054906101000a900473ffffffffffffffffffffffffffffffffffffffff1681565b6040518060e0016040528060008152602001600073ffffffffffffffffffffffffffffffffffffffff168152602001600073ffffffffffffffffffffffffffffffffffffffff16815260200160008152602001600081526020016000815260200160006004811115611698577f4e487b7100000000000000000000000000000000000000000000000000000000600052602160045260246000fd5b81525090565b6000813590506116ad81612307565b92915050565b6000602082840312156116c557600080fd5b60006116d38482850161169e565b91505092915050565b600080604083850312156116ef57600080fd5b60006116fd8582860161169e565b925050602061170e8582860161169e565b9150509250929050565b60006117248383611df2565b60208301905092915050565b6117398161224d565b82525050565b611748816121fe565b82525050565b611757816121fe565b82525050565b611766816121ec565b82525050565b611775816121ec565b82525050565b600061178682612173565b611790818561218b565b935061179b83612163565b8060005b838110156117cc5781516117b38882611718565b97506117be8361217e565b92505060018101905061179f565b5085935050505092915050565b6117e28161225f565b82525050565b60006117f5603e836121a7565b91507f41677265656d656e74206973206e6f74206163746976652c207468657265206960008301527f73206e6f206465706f7369742072657475726e20746f20617070726f766500006020830152604082019050919050565b600061185b6017836121a7565b91507f4465706f736974207061796d656e74206661696c65642e0000000000000000006000830152602082019050919050565b600061189b602a836121a7565b91507f416374696f6e2063616e206f6e6c7920626520706572666f726d65642062792060008301527f61206c616e646c6f7264000000000000000000000000000000000000000000006020830152604082019050919050565b60006119016036836121a7565b91507f4465706f736974206973206e6f742072656c65617365642e20506c656173652060008301527f636865636b2061677265656d656e742073746174652e000000000000000000006020830152604082019050919050565b60006119676030836121a7565b91507f446564756374696f6e732063616e6e6f7420626520677265617465722074686160008301527f6e206465706f73697420616d6f756e74000000000000000000000000000000006020830152604082019050919050565b60006119cd603a836121a7565b91507f416374697665206465706f7369742061677265656d656e7420666f722067697660008301527f656e2070726f706572747920616c7265616479206578697374730000000000006020830152604082019050919050565b6000611a33602d836121a7565b91507f54656e616e7420686173206e6f742070616964206465706f73697420666f722060008301527f746869732070726f7065727479000000000000000000000000000000000000006020830152604082019050919050565b6000611a99601f836121a7565b91507f506c6561736520706179206578616374206465706f73697420616d6f756e74006000830152602082019050919050565b6000611ad96022836121a7565b91507f4465706f7369742063616e6e6f742062652070616964206279206c616e646c6f60008301527f72640000000000000000000000000000000000000000000000000000000000006020830152604082019050919050565b6000611b3f6016836121a7565b91507f4465706f7369742072657475726e206661696c65642e000000000000000000006000830152602082019050919050565b6000611b7f602d836121a7565b91507f4e6f206465706f7369742061677265656d656e742065786973747320666f722060008301527f676976656e2061646472657373000000000000000000000000000000000000006020830152604082019050919050565b6000611be5602c836121a7565b91507f436f6e74726163742062616c616e6365206973206c657373207468616e20646560008301527f706f73697420616d6f756e7400000000000000000000000000000000000000006020830152604082019050919050565b6000611c4b60008361219c565b9150600082019050919050565b6000611c656013836121a7565b91507f4e6f2070726f70657274696573206578697374000000000000000000000000006000830152602082019050919050565b6000611ca56042836121a7565b91507f41677265656d656e742069732065697468657220616374697665206f7220656e60008301527f6465642c2063616e6e6f7420616363657074206465706f736974207061796d6560208301527f6e740000000000000000000000000000000000000000000000000000000000006040830152606082019050919050565b6000611d31601f836121a7565b91507f5265656e7472616e637947756172643a207265656e7472616e742063616c6c006000830152602082019050919050565b60e082016000820151611d7a6000850182611df2565b506020820151611d8d602085018261175d565b506040820151611da0604085018261173f565b506060820151611db36060850182611df2565b506080820151611dc66080850182611df2565b5060a0820151611dd960a0850182611df2565b5060c0820151611dec60c08501826117d9565b50505050565b611dfb81612243565b82525050565b611e0a81612243565b82525050565b6000611e1b82611c3e565b9150819050919050565b6000602082019050611e3a600083018461174e565b92915050565b600060a082019050611e556000830188611730565b611e626020830187611e01565b611e6f6040830186611e01565b611e7c6060830185611730565b611e896080830184611e01565b9695505050505050565b6000608082019050611ea86000830187611730565b611eb56020830186611e01565b611ec26040830185611e01565b611ecf6060830184611e01565b95945050505050565b600060a082019050611eed600083018861176c565b611efa6020830187611e01565b611f076040830186611e01565b611f14606083018561176c565b611f216080830184611e01565b9695505050505050565b60006020820190508181036000830152611f45818461177b565b905092915050565b60006020820190508181036000830152611f66816117e8565b9050919050565b60006020820190508181036000830152611f868161184e565b9050919050565b60006020820190508181036000830152611fa68161188e565b9050919050565b60006020820190508181036000830152611fc6816118f4565b9050919050565b60006020820190508181036000830152611fe68161195a565b9050919050565b60006020820190508181036000830152612006816119c0565b9050919050565b6000602082019050818103600083015261202681611a26565b9050919050565b6000602082019050818103600083015261204681611a8c565b9050919050565b6000602082019050818103600083015261206681611acc565b9050919050565b6000602082019050818103600083015261208681611b32565b9050919050565b600060208201905081810360008301526120a681611b72565b9050919050565b600060208201905081810360008301526120c681611bd8565b9050919050565b600060208201905081810360008301526120e681611c58565b9050919050565b6000602082019050818103600083015261210681611c98565b9050919050565b6000602082019050818103600083015261212681611d24565b9050919050565b600060e0820190506121426000830184611d64565b92915050565b600060208201905061215d6000830184611e01565b92915050565b6000819050602082019050919050565b600081519050919050565b6000602082019050919050565b600082825260208201905092915050565b600081905092915050565b600082825260208201905092915050565b60006121c382612243565b91506121ce83612243565b9250828210156121e1576121e0612295565b5b828203905092915050565b60006121f782612223565b9050919050565b600061220982612223565b9050919050565b600081905061221e826122f3565b919050565b600073ffffffffffffffffffffffffffffffffffffffff82169050919050565b6000819050919050565b600061225882612271565b9050919050565b600061226a82612210565b9050919050565b600061227c82612283565b9050919050565b600061228e82612223565b9050919050565b7f4e487b7100000000000000000000000000000000000000000000000000000000600052601160045260246000fd5b7f4e487b7100000000000000000000000000000000000000000000000000000000600052602160045260246000fd5b60058110612304576123036122c4565b5b50565b61231081612243565b811461231b57600080fd5b5056fea26469706673582212200421c64b82319a17c4480f5eda9ce664caac100615dde3cb4f8416637e876c4264736f6c63430008000033",
  "immutableReferences": {},
  "source": "// SPDX-License-Identifier: MIT\npragma solidity 0.8.0;\n\nimport \"@openzeppelin/contracts/security/ReentrancyGuard.sol\";\n\n/// @title Simple Tenancy Deposit\n/// @author w3ia.x\n/// @notice Contract for exchanging of deposits between tenants and landlords.\n\ncontract TenancyDeposit is ReentrancyGuard {\n\n  address payable public landlord;\n\n  uint[] internal properties;\n\n\n  ///@notice Used for tracking the state of a deposit agreement\n  ///@dev used to ensure a given function cannot execute if a deposit agreement is not in the correct state\n  enum AgreementState { Empty, Created, Active, Released, Ended }\n\n  ///@notice Represents the deposit agreement between landlord and tenants.\n  struct Deposit { \n    uint propertyId;\n    address landlord;\n    address payable tenant;\n    uint depositAmount;\n    uint deductions;\n    uint returnAmount;\n    AgreementState agreementState;\n  }\n  // Stores all deposits by the associated property\n  mapping(uint => Deposit) internal depositByProperty;\n\n  // Stores properties that have paid deposits\n  // Used for the tenantOnly modifier to ensure the msg.sender as a paid tenant\n  mapping(uint => address) internal tenantByProperty;\n\n  /// @notice Emitted when landlord created a skeleton agreement for a property\n  /// @param landlord Landlord's address\n  /// @param propertyId ID of property\n  /// @param depositAmount The required deposit for the given property\n  /// @param tenant Tenant address - will be address(0) on creation\n  /// @param agreementState Tracks the given state of the agreement during its lifetime\n  event DepositAgreementCreated(address landlord, uint propertyId, uint depositAmount, address tenant, uint agreementState);\n\n  /// @notice Emitted when tenant pays deposit for a property\n  /// @param tenant Tenant address\n  /// @param propertyId ID of property.\n  /// @param depositAmount The required deposit for the given property.\n  /// @param agreementState Tracks the given state of the agreement during its lifetime.\n  event DepositPaid(address tenant, uint propertyId, uint depositAmount, uint agreementState);\n\n  /// @notice Emitted when tenant withdraws deposit for a property\n  /// @param landlord Landlord's address\n  /// @param propertyId ID of property.\n  /// @param returnedAmount The amount of deposit returned to tenant\n  /// @param agreementState Tracks the given state of the agreement during its lifetime.\n  event DepositReturned(address landlord, uint propertyId, uint returnedAmount, address tenant, uint agreementState);\n\n  modifier landlordOnly() {\n    require(msg.sender == landlord, \"Action can only be performed by a landlord\");\n    _;\n  }\n\n  modifier tenantOnly(uint _propertyId) {\n    require(tenantByProperty[_propertyId] == msg.sender, \"Tenant has not paid deposit for this property\");\n    _;\n  }\n\n  modifier enoughDepositBalance(uint _propertyId) {\n    require(address(this).balance >= depositByProperty[_propertyId].depositAmount, \"Contract balance is less than deposit amount\"); \n    _;\n  }\n\n  constructor() {\n    landlord = payable(msg.sender);\n  }\n\n  /// @notice Creates a new deposit agreement\n  /// @param _propertyId ID of property.\n  /// @param _depositAmount The required deposit\n  /// @dev landlordOnly and reverts if agreement for given propertyId already exists.\n  function createDepositAgreement(uint _propertyId, uint _depositAmount) external landlordOnly {\n    require(depositByProperty[_propertyId].agreementState != AgreementState.Active,\n    \"Active deposit agreement for given property already exists\");\n\n      depositByProperty[_propertyId] = Deposit({\n        propertyId: _propertyId,\n        landlord: landlord,\n        tenant: payable(address(0)),\n        depositAmount: _depositAmount,\n        deductions: 0,\n        returnAmount: 0,\n        agreementState: AgreementState.Created\n      });\n\n    properties.push(_propertyId);\n\n    emit DepositAgreementCreated(msg.sender, _propertyId, _depositAmount, address(0), uint(depositByProperty[_propertyId].agreementState));\n  }\n\n  /// @notice Allows tenant to pay the required deposit for a property\n  /// @param _propertyId ID of property.\n  /// @dev payable function that reverts if msg.value != Deposit.depositAmount\n  function payDeposit(uint _propertyId) external payable nonReentrant {\n    require(depositByProperty[_propertyId].agreementState == AgreementState.Created, \n    \"Agreement is either active or ended, cannot accept deposit payment\");\n\n    require(landlord != msg.sender,\n    \"Deposit cannot be paid by landlord\");\n\n    require(depositByProperty[_propertyId].depositAmount == msg.value, \n    \"Please pay exact deposit amount\");\n    \n    tenantByProperty[_propertyId] = msg.sender;\n\n    depositByProperty[_propertyId].tenant = payable(msg.sender);\n    depositByProperty[_propertyId].agreementState = AgreementState.Active;\n\n    (bool sent, ) = address(this).call{ value: msg.value }(\"\");\n      require(sent, \"Deposit payment failed.\");\n      \n    emit DepositPaid(depositByProperty[_propertyId].tenant, _propertyId, depositByProperty[_propertyId].depositAmount, uint(depositByProperty[_propertyId].agreementState));\n  }\n\n  /// @notice Allows landlord to set deposit deductions at the end of an agreement and approve deposit return\n  /// @param _propertyId ID of property.\n  /// @param _deductions How much will be deducted from the deposit (can be 0)\n  /// @dev landlordOnly function that will revert if contract balance < return amount or if agreementState != active\n  function approveDepositReturn(uint _propertyId, uint _deductions) external landlordOnly enoughDepositBalance(_propertyId) returns(uint) {\n    require(depositByProperty[_propertyId].agreementState == AgreementState.Active, \n    \"Agreement is not active, there is no deposit return to approve\");\n\n    require(depositByProperty[_propertyId].depositAmount >= _deductions, \"Deductions cannot be greater than deposit amount\");\n\n    depositByProperty[_propertyId].agreementState = AgreementState.Released;\n    depositByProperty[_propertyId].deductions = _deductions;\n    depositByProperty[_propertyId].returnAmount = depositByProperty[_propertyId].depositAmount - _deductions;\n\n    return depositByProperty[_propertyId].returnAmount;\n  }\n\n  /// @notice Allows tenant to withdraw a released deposit\n  /// @param _propertyId ID of property\n  /// @dev tenantOnly function that will revert if contract balance < return amount or if agreementState != released\n  function withdrawDeposit(uint _propertyId) external tenantOnly(_propertyId) enoughDepositBalance(_propertyId) nonReentrant {\n     require(depositByProperty[_propertyId].agreementState == AgreementState.Released, \n    \"Deposit is not released. Please check agreement state.\");\n\n    depositByProperty[_propertyId].agreementState = AgreementState.Ended;\n    (bool sent, ) = depositByProperty[_propertyId].tenant.call{ value: depositByProperty[_propertyId].returnAmount }(\"\");\n      require(sent, \"Deposit return failed.\");\n    emit DepositReturned(landlord, _propertyId, depositByProperty[_propertyId].returnAmount,depositByProperty[_propertyId].tenant, uint(depositByProperty[_propertyId].agreementState));\n  }\n\n  /// @notice Returns deposit for given property\n  /// @param _propertyId ID of property\n  /// @dev Utility function for front-end, returns Deposit at the given propertyId\n  function getDeposit(uint _propertyId) external view returns(Deposit memory) {\n    require(depositByProperty[_propertyId].agreementState != AgreementState.Empty, \"No deposit agreement exists for given address\");\n    return depositByProperty[_propertyId];\n  }\n\n  /// @notice Returns list of all propertyIds that have an existing agreement\n  /// @dev Utility function for front-end, returns array of propertyIds that can be looped in the front-end rather than in contract\n  function getPropertyIds() external view returns(uint[] memory) {\n    require(properties.length > 0, \"No properties exist\");\n    return properties;\n  }\n\n  /// @notice Returns full contract balance\n  /// @dev landlordOnly utility function for front-end, returns full contract balance.\n  function depositBalances() external view landlordOnly returns(uint) {\n    return uint(address(this).balance);\n  }\n  \n  /// @dev fallback receive function so that contract can accept eth.\n  receive() external payable {\n  }\n}",
  "sourcePath": "/Users/hardeep.nagra/projects/blockchain-developer-bootcamp-final-project/contracts/TenancyDeposit.sol",
  "compiler": {
    "name": "solc",
    "version": "0.8.0+commit.c7dfd78e.Emscripten.clang"
  },
  "schemaVersion": "3.4.3",
  "updatedAt": "2021-12-01T12:31:17.361Z",
  "networkType": "ethereum",
  "devdoc": {
    "author": "w3ia.x",
    "events": {
      "DepositAgreementCreated(address,uint256,uint256,address,uint256)": {
        "params": {
          "agreementState": "Tracks the given state of the agreement during its lifetime",
          "depositAmount": "The required deposit for the given property",
          "landlord": "Landlord's address",
          "propertyId": "ID of property",
          "tenant": "Tenant address - will be address(0) on creation"
        }
      },
      "DepositPaid(address,uint256,uint256,uint256)": {
        "params": {
          "agreementState": "Tracks the given state of the agreement during its lifetime.",
          "depositAmount": "The required deposit for the given property.",
          "propertyId": "ID of property.",
          "tenant": "Tenant address"
        }
      },
      "DepositReturned(address,uint256,uint256,address,uint256)": {
        "params": {
          "agreementState": "Tracks the given state of the agreement during its lifetime.",
          "landlord": "Landlord's address",
          "propertyId": "ID of property.",
          "returnedAmount": "The amount of deposit returned to tenant"
        }
      }
    },
    "kind": "dev",
    "methods": {
      "approveDepositReturn(uint256,uint256)": {
        "details": "landlordOnly function that will revert if contract balance < return amount or if agreementState != active",
        "params": {
          "_deductions": "How much will be deducted from the deposit (can be 0)",
          "_propertyId": "ID of property."
        }
      },
      "createDepositAgreement(uint256,uint256)": {
        "details": "landlordOnly and reverts if agreement for given propertyId already exists.",
        "params": {
          "_depositAmount": "The required deposit",
          "_propertyId": "ID of property."
        }
      },
      "depositBalances()": {
        "details": "landlordOnly utility function for front-end, returns full contract balance."
      },
      "getDeposit(uint256)": {
        "details": "Utility function for front-end, returns Deposit at the given propertyId",
        "params": {
          "_propertyId": "ID of property"
        }
      },
      "getPropertyIds()": {
        "details": "Utility function for front-end, returns array of propertyIds that can be looped in the front-end rather than in contract"
      },
      "payDeposit(uint256)": {
        "details": "payable function that reverts if msg.value != Deposit.depositAmount",
        "params": {
          "_propertyId": "ID of property."
        }
      },
      "withdrawDeposit(uint256)": {
        "details": "tenantOnly function that will revert if contract balance < return amount or if agreementState != released",
        "params": {
          "_propertyId": "ID of property"
        }
      }
    },
    "title": "Simple Tenancy Deposit",
    "version": 1
  },
  "userdoc": {
    "events": {
      "DepositAgreementCreated(address,uint256,uint256,address,uint256)": {
        "notice": "Emitted when landlord created a skeleton agreement for a property"
      },
      "DepositPaid(address,uint256,uint256,uint256)": {
        "notice": "Emitted when tenant pays deposit for a property"
      },
      "DepositReturned(address,uint256,uint256,address,uint256)": {
        "notice": "Emitted when tenant withdraws deposit for a property"
      }
    },
    "kind": "user",
    "methods": {
      "approveDepositReturn(uint256,uint256)": {
        "notice": "Allows landlord to set deposit deductions at the end of an agreement and approve deposit return"
      },
      "createDepositAgreement(uint256,uint256)": {
        "notice": "Creates a new deposit agreement"
      },
      "depositBalances()": {
        "notice": "Returns full contract balance"
      },
      "getDeposit(uint256)": {
        "notice": "Returns deposit for given property"
      },
      "getPropertyIds()": {
        "notice": "Returns list of all propertyIds that have an existing agreement"
      },
      "payDeposit(uint256)": {
        "notice": "Allows tenant to pay the required deposit for a property"
      },
      "withdrawDeposit(uint256)": {
        "notice": "Allows tenant to withdraw a released deposit"
      }
    },
    "notice": "Contract for exchanging of deposits between tenants and landlords.",
    "version": 1
  }
}